:100000000EC028C027C026C025C024C023C022C0DF
:1000100021C020C01FC01EC01DC01CC01BC0112499
:100020001FBECFE5D2E0DEBFCDBF10E0A0E6B0E05E
:10003000E8EAF4E002C005900D92A037B107D9F7C5
:1000400020E0A0E7B0E001C01D92AC3EB207E1F7AE
:10005000B2D128C2D5CF86B38A7390E0089528E044
:1000600030E094E045E018BA87FF06C048BB880F2F
:1000700021503109C1F7089598BBF9CF0F931F9311
:10008000CF93DF93E82F392F8B01EB01D595C795DF
:100090008E2F66E070E0F5D1DC01AE58BF4FAC0F9B
:1000A000BD1F2C9100FF14C04295407F2F70422B42
:1000B0008E2F932F66E070E0E4D1FC01EE58FF4FE5
:1000C000EC0FFD1F4083DF91CF911F910F91089599
:1000D000207FEDCF9B01DB01B595A79566E070E031
:1000E000D0D1FC01EE58FF4FEA0FFB1F808120FDAD
:1000F00082958F700895982F9295907F892BE2E7D3
:10010000F0E02AEE30E080838183828383838483DE
:10011000858336962E173F07B1F708957F928F9209
:100120009F92AF92BF92CF92DF92EF92FF920F9386
:100130001F93CF93DF937C01962E872E5A0169017E
:10014000D0E0C0E010E000E026C0692D782DC801A5
:10015000C1DF782E692D782DC8010196BBDFE72D10
:10016000F0E0EE0FFF1FEE0FFF1FEA0DFB1DEC0F7F
:10017000FD1F90819295907FE82FF0E0EE0FFF1F1A
:10018000EE0FFF1FEA0DFB1DEC0FFD1F8081892B79
:1001900066DF0E5F1F4F0E151F05BCF2870104318D
:1001A000110594F02196C430D10561F6DF91CF910D
:1001B0001F910F91FF90EF90DF90CF90BF90AF9085
:1001C0009F908F907F900895692D782DC80182DFD0
:1001D000782E692D782DC80101967CDFE72DF0E09F
:1001E000EE0FFF1FEE0FFF1FEC0DFD1DEC0FFD1FAF
:1001F00090819295907FE82FF0E0EE0FFF1FEE0FB9
:10020000FF1FEC0DFD1DEC0FFD1F8081892B27DFEB
:100210000E5F1F4FC4CF9F92AF92BF92CF92DF92DB
:10022000EF92FF920F931F93CF93DF93EC016B013B
:100230007A01CC15DD0564F0DF91CF911F910F910C
:10024000FF90EF90DF90CF90BF90AF909F90089578
:10025000B12CA12C10E000E0BE01C8013BDF982EBC
:10026000BE01C801019636DFE92DF0E0EE0FFF1F59
:10027000EE0FFF1FEE0DFF1DEA0DFB1D9081929505
:10028000907FE82FF0E0EE0FFF1FEE0FFF1FEE0D47
:10029000FF1DEA0DFB1D8081892BE1DE0E5F1F4FE4
:1002A00004311105C9F68FEFA81AB80A84E0A81620
:1002B000B10481F62196BDCFAC016CE070E090E016
:1002C00080E0A9CF9C01AB01A8E6B0E090E080E01F
:1002D0006D917D916217730751F4FC01EE0FFF1FC2
:1002E000E05AFF4F608171816417750731F0019604
:1002F0008430910569F78FEF9FEF0895EF92FF9299
:100300000F931F93CF93DF9310E000E0D0E0C0E0A5
:100310001BC0809170009091710080179107B9F413
:100320008091EA009091EB008E159F0581F48FEF8C
:1003300096DE8FEFE81AF80A8AE0E816F10449F72A
:100340002196C830D10589F0F12CE12CE2CFB8011B
:10035000C701B8DF97FD07C0209749F381E8C73090
:10036000D10531F7E4CF80E0E3CF0F5F1F4F0630B8
:10037000110561F6DF91CF911F910F91FF90EF90E2
:1003800008950A9738F481E090E06630710520F016
:1003900080E0089580E090E008958FE087BB18BA70
:1003A00082E090E09093EB008093EA0090937100DC
:1003B000809370000895F1DF4091EA005091EB00C6
:1003C000209170003091710086B38A73823059F0A9
:1003D000883049F0F12CE12C01E010E0803141F44B
:1003E0000FEF1FEF05C0EE24EA94FE2C10E000E0B2
:1003F0005A01A00EB11E8AE0A816B10428F76901BF
:10040000CE0CDF1C96E0C916D104F0F6B601C5018A
:1004100059DF9C0197FD2CC0220F331FF901E859C9
:10042000FF4F4F0180819181080F191F0A3011057C
:10043000E8F4E901C05ADF4F88819981E80EF91E7E
:10044000F6E0EF16F10490F4B701C8013BDF97FF27
:100450000DC0B092EB00A092EA00D0927100C09261
:100460007000F40111830083F982E88247DFA4CF92
:10047000B092EB00A092EA00D0927100C09270009E
:10048000F5CF0024552704C0080E591F880F991F67
:10049000009729F076956795B8F37105B9F7802D27
:0804A000952F0895F894FFCF99
:1004A800010004000200040001000200060004002C
:00000001FF
