:100000000EC01DC01CC01BC01AC019C018C017C02C
:1000100016C015C014C013C012C011C010C01124E6
:100020001FBECFE5D2E0DEBFCDBF20E0A0E6B0E04E
:1000300001C01D92A03EB207E1F7A9D116C2E0CFE0
:1000400086B38A7390E0089528E030E094E045E0BC
:1000500018BA87FF06C048BB880F21503109C1F785
:10006000089598BBF9CF0F931F93CF93DF93E82F99
:10007000392F8B01EB01D595C7958E2F66E070E087
:10008000E3D1DC01AC59BF4FAC0FBD1F2C9100FF79
:1000900014C04295407F2F70422B8E2F932F66E025
:1000A00070E0D2D1FC01EC59FF4FEC0FFD1F4083F3
:1000B000DF91CF911F910F910895207FEDCF9B018C
:1000C000DB01B595A79566E070E0BED1FC01EC5967
:1000D000FF4FEA0FFB1F808120FD82958F700895EE
:1000E000982F9295907F892BE4E6F0E02CED30E09C
:1000F00080838183828383838483858336962E17CE
:100100003F07B1F708957F928F929F92AF92BF926F
:10011000CF92DF92EF92FF920F931F93CF93DF93D3
:100120007C01962E872E5A016901D0E0C0E010E0D4
:1001300000E026C0692D782DC801C1DF782E692D19
:10014000782DC8010196BBDFE72DF0E0EE0FFF1F11
:10015000EE0FFF1FEA0DFB1DEC0FFD1F9081929526
:10016000907FE82FF0E0EE0FFF1FEE0FFF1FEA0D6C
:10017000FB1DEC0FFD1F8081892B66DF0E5F1F4F7B
:100180000E151F05BCF287010431110594F021966C
:10019000C430D10561F6DF91CF911F910F91FF908F
:1001A000EF90DF90CF90BF90AF909F908F907F9017
:1001B0000895692D782DC80182DF782E692D782D5C
:1001C000C80101967CDFE72DF0E0EE0FFF1FEE0F78
:1001D000FF1FEC0DFD1DEC0FFD1F90819295907F90
:1001E000E82FF0E0EE0FFF1FEE0FFF1FEC0DFD1DDF
:1001F000EC0FFD1F8081892B27DF0E5F1F4FC4CFBF
:100200009F92AF92BF92CF92DF92EF92FF920F93A5
:100210001F93CF93DF93EC016B017A01CC15DD05C1
:1002200064F0DF91CF911F910F91FF90EF90DF90DD
:10023000CF90BF90AF909F900895B12CA12C10E06B
:1002400000E0BE01C8013BDF982EBE01C801019647
:1002500036DFE92DF0E0EE0FFF1FEE0FFF1FEE0D72
:10026000FF1DEA0DFB1D90819295907FE82FF0E035
:10027000EE0FFF1FEE0FFF1FEE0DFF1DEA0DFB1D22
:100280008081892BE1DE0E5F1F4F04311105C9F615
:100290008FEFA81AB80A84E0A816B10481F6219657
:1002A000BDCFAC016CE070E090E080E0A9CFEF92B0
:1002B000FF920F931F93CF93DF9310E000E0D0E005
:1002C000C0E01BC080916000909161008017910791
:1002D000B9F48091DC009091DD008E159F0581F4CA
:1002E0008FEFB2DE8FEFE81AF80A8AE0E816F10421
:1002F00049F72196C830D105D1F0F12CE12CE2CF9D
:1003000080916200909163008017910771F4809151
:10031000DE009091DF008E159F0539F4209701F3E0
:1003200081E8C730D105E9F6DBCF80E0DACF0F5F97
:100330001F4F0630110519F6DF91CF911F910F91D4
:10034000FF90EF9008950A9738F481E090E06630CE
:10035000710520F080E0089580E090E008958FE03E
:1003600087BB18BA84E090E09093DD008093DC00B6
:10037000909361008093600081E090E09093DF00B3
:100380008093DE0090936300809362000895E7DF1E
:10039000A091DC00B091DD00E0916000F09161007F
:1003A00086B38A738230F1F18830E1F190E08031D8
:1003B000F1F180E021E030E0BD01620F731F6A308F
:1003C000710570F7AF01480F591F4630510540F7CE
:1003D000A091DE00B091DF00A617B70761F5E091AC
:1003E0006200F0916300E417F50729F52A0F3B1F1F
:1003F0002A303105A8F48E0F9F1F8630910580F4B6
:10040000B093DD00A093DC00F0936100E093600006
:100410003093DF002093DE009093630080936200AE
:1004200046DFB6CF8FEF9FEF30E020E0C5CF80E012
:100430002FEF3FEFC1CF7093DD006093DC0050934E
:10044000610040936000ECCF0024552704C0080EE3
:10045000591F880F991F009729F076956795B8F373
:0E0460007105B9F7802D952F0895F894FFCF00
:00000001FF
