:100000000EC028C027C026C025C024C023C022C0DF
:1000100021C020C01FC01EC01DC01CC01BC0112499
:100020001FBECFE5D2E0DEBFCDBF10E0A0E6B0E05E
:10003000EAEFF5E002C005900D92AA3BB107D9F7AF
:1000400021E0AAEBB0E001C01D92A433B207E1F7B2
:1000500093D2D1C2D5CF86B38A7390E0089528E0B9
:1000600030E094E045E018BA87FF06C048BB880F2F
:1000700021503109C1F7089598BBF9CF0F931F9311
:10008000CF93DF93E82F392F8B01EB01D595C795DF
:100090008E2F66E070E077D2DC01A454BF4FAC0F26
:1000A000BD1F2C9100FF14C04295407F2F70422B42
:1000B0008E2F932F66E070E066D2FC01E454FF4F70
:1000C000EC0FFD1F4083DF91CF911F910F91089599
:1000D000207FEDCF9B01DB01B595A79566E070E031
:1000E00052D2FC01E454FF4FEA0FFB1F808120FD38
:1000F00082958F700895982F9295907F892BECEBC5
:10010000F0E024E331E080838183828383838483EE
:10011000858336962E173F07B1F708957F928F9209
:100120009F92AF92BF92CF92DF92EF92FF920F9386
:100130001F93CF93DF937C01962E872E5A0169017E
:10014000D0E0C0E010E000E026C0692D782DC801A5
:10015000C1DF782E692D782DC8010196BBDFE72D10
:10016000F0E0EE0FFF1FEE0FFF1FEA0DFB1DEC0F7F
:10017000FD1F90819295907FE82FF0E0EE0FFF1F1A
:10018000EE0FFF1FEA0DFB1DEC0FFD1F8081892B79
:1001900066DF0E5F1F4F0E151F05BCF2870104318D
:1001A000110594F02196C430D10561F6DF91CF910D
:1001B0001F910F91FF90EF90DF90CF90BF90AF9085
:1001C0009F908F907F900895692D782DC80182DFD0
:1001D000782E692D782DC80101967CDFE72DF0E09F
:1001E000EE0FFF1FEE0FFF1FEC0DFD1DEC0FFD1FAF
:1001F00090819295907FE82FF0E0EE0FFF1FEE0FB9
:10020000FF1FEC0DFD1DEC0FFD1F8081892B27DFEB
:100210000E5F1F4FC4CF9F92AF92BF92CF92DF92DB
:10022000EF92FF920F931F93CF93DF93EC016B013B
:100230007A01CC15DD0564F0DF91CF911F910F910C
:10024000FF90EF90DF90CF90BF90AF909F90089578
:10025000B12CA12C10E000E0BE01C8013BDF982EBC
:10026000BE01C801019636DFE92DF0E0EE0FFF1F59
:10027000EE0FFF1FEE0DFF1DEA0DFB1D9081929505
:10028000907FE82FF0E0EE0FFF1FEE0FFF1FEE0D47
:10029000FF1DEA0DFB1D8081892BE1DE0E5F1F4FE4
:1002A00004311105C9F68FEFA81AB80A84E0A81620
:1002B000B10481F62196BDCFAC016CE070E090E016
:1002C00080E0A9CF5F926F927F928F929F92AF92C0
:1002D000BF92CF92DF92EF92FF920F931F93CF9333
:1002E000DF93EC018B01752E6C0185E0C80ED11CEB
:1002F00080E1E82E87E2F82E5B018FEFA81AB80A9A
:100300009AE0892E912C842F972DB7014DD13C0175
:1003100055245394560E452DB801CE01AFDE452D20
:10032000B501CE01ABDE462DC701B4013DD17B0145
:100330002196CC16DD0639F7DF91CF911F910F91F1
:10034000FF90EF90DF90CF90BF90AF909F908F90F5
:100350007F906F905F9008956F927F928F929F929F
:10036000AF92BF92CF92DF92EF92FF920F931F93C3
:10037000CF93DF93EC018B013A016C0185E0C80E4D
:10038000D11C80E1E82E87E2F82E5B018FEFA81ADE
:10039000B80A9AE0892E912C6E147F0441F440E053
:1003A000B801CE016BDE40E0B501CE0167DEC701CA
:1003B000B401FAD07B012196CC15DD0569F7DF91F8
:1003C000CF911F910F91FF90EF90DF90CF90BF9052
:1003D000AF909F908F907F906F9008958FE087BB34
:1003E00018BA0895EF92FF920F931F93CF93DF9364
:1003F000382F292FFB0104E010E0C8EED3E08AE09B
:10040000E82EF12C832F922FEC17FD07A1F0BE01EF
:10041000CBD0382F292FCE01B701C6D0EB01015028
:10042000110981F790E080E0DF91CF911F910F914A
:10043000FF90EF900895BF01B7D0CB01F5CF0F9398
:100440001F93CF93DF9386B3C0916000D09161007A
:1004500083FF1BC00091BA001091BB00BE01C80110
:10046000C1DF892B39F4CE0169E070E08CD0080F30
:10047000191F02C00C1B1D0B1093BB000093BA0088
:10048000DF91CF911F910F91089581FF14C00091CA
:10049000BA001091BB00BE01C801A4DF099721F486
:1004A000CE0167EF7FEFE2CFC00FD11FD093BB002B
:1004B000C093BA00E5CFC230D1057CF085FF09C0FA
:1004C000CE016AE070E070D07093610060936000CC
:1004D000D7CFC83E93E0D9079CF68A7389F2CE0144
:1004E0006AE070E050D09093610080936000C8CFC4
:1004F0000F931F93CF93DF938C01AC0165E070E005
:1005000088E090E0DFDED0E0C0E08091BA0090911A
:10051000BB008017910729F4DF91CF911F910F91B4
:1005200008958DDF2097D9F44091BA005091BB0017
:1005300065E070E088E090E0C5DE4EE850E066E0FF
:1005400070E090E080E067DE42E650E06CE070E052
:1005500086E090E060DE2196C370DD27D6CFC23002
:10056000D10559F7409160005091610065E070E05D
:1005700088E090E0F1DEE1CF31DF8FE690E0B8DF98
:1005800090E080E008950024552704C0080E591F0C
:10059000880F991F009729F076956795B8F3710534
:1005A000B9F7802D952F089597FB072E16F4009428
:1005B00006D077FD08D00BD007FC05D03EF490950F
:1005C00081959F4F0895709561957F4F0895AA1B5F
:1005D000BB1B51E107C0AA1FBB1FA617B70710F02E
:1005E000A61BB70B881F991F5A95A9F78095909560
:0A05F000BC01CD010895F894FFCF7F
:1005FA000100000000000A040000040E0000080EBA
:10060A000000020C00000E020000020E00000A0E9A
:10061A000000040400000A0E0000020E00000000A0
:10062A00000000040A0A00040C04000C0204000C76
:10063A0002060008080A000E080E000E080E000E38
:0A064A000204000E0A0E000E0A0E54
:00000001FF
