:100000000EC028C027C026C025C024C023C022C0DF
:1000100021C020C01FC01EC01DC01CC01BC0112499
:100020001FBECFE5D2E0DEBFCDBF11E0A0E6B0E05D
:10003000EAEDFEE002C005900D92A435B107D9F7B4
:1000400021E0A4E5B1E001C01D92AC3FB207E1F7A9
:1000500003D741C7D5CF86B38A7390E0089528E0CF
:1000600030E094E045E018BA87FF06C048BB880F2F
:1000700021503109C1F7089598BBF9CF0F931F9311
:10008000CF93DF93E82F392F8B01EB01D595C795DF
:100090008E2F66E070E0E7D6DC01AC57BE4FAC0FA8
:1000A000BD1F2C9100FF14C04295407F2F70422B42
:1000B0008E2F932F66E070E0D6D6FC01EC57FE4FF2
:1000C000EC0FFD1F4083DF91CF911F910F91089599
:1000D000207FEDCF9B01DB01B595A79566E070E031
:1000E000C2D6FC01EC57FE4FEA0FFB1F808120FDBA
:1000F00082958F700895982F9295907F892BE4E8D0
:10010000F1E02CEF31E080838183828383838483D9
:10011000858336962E173F07B1F708957F928F9209
:100120009F92AF92BF92CF92DF92EF92FF920F9386
:100130001F93CF93DF937C01962E872E5A0169017E
:10014000D0E0C0E010E000E026C0692D782DC801A5
:10015000C1DF782E692D782DC8010196BBDFE72D10
:10016000F0E0EE0FFF1FEE0FFF1FEA0DFB1DEC0F7F
:10017000FD1F90819295907FE82FF0E0EE0FFF1F1A
:10018000EE0FFF1FEA0DFB1DEC0FFD1F8081892B79
:1001900066DF0E5F1F4F0E151F05BCF2870104318D
:1001A000110594F02196C430D10561F6DF91CF910D
:1001B0001F910F91FF90EF90DF90CF90BF90AF9085
:1001C0009F908F907F900895692D782DC80182DFD0
:1001D000782E692D782DC80101967CDFE72DF0E09F
:1001E000EE0FFF1FEE0FFF1FEC0DFD1DEC0FFD1FAF
:1001F00090819295907FE82FF0E0EE0FFF1FEE0FB9
:10020000FF1FEC0DFD1DEC0FFD1F8081892B27DFEB
:100210000E5F1F4FC4CF9F92AF92BF92CF92DF92DB
:10022000EF92FF920F931F93CF93DF93EC016B013B
:100230007A01CC15DD0564F0DF91CF911F910F910C
:10024000FF90EF90DF90CF90BF90AF909F90089578
:10025000B12CA12C10E000E0BE01C8013BDF982EBC
:10026000BE01C801019636DFE92DF0E0EE0FFF1F59
:10027000EE0FFF1FEE0DFF1DEA0DFB1D9081929505
:10028000907FE82FF0E0EE0FFF1FEE0FFF1FEE0D47
:10029000FF1DEA0DFB1D8081892BE1DE0E5F1F4FE4
:1002A00004311105C9F68FEFA81AB80A84E0A81620
:1002B000B10481F62196BDCFAC016CE070E090E016
:1002C00080E0A9CF9C01CB01261737070CF4C901A8
:1002D00008959C01CB01621773070CF4C9010895BE
:1002E0008AE591E008958091820190918301880FC1
:1002F000991F880F991F8A5A9E4F0895FC01828189
:1003000093810196938382830895FC018281938176
:100310000197938382830895E6E5F1E084A595A58E
:10032000019795A784A7089580915A0190915B0148
:100330000895CF93DF9300D000D0CDB7DEB79B01F7
:10034000FC011216130614F52331310514F5E330C0
:10035000F10514F1CF01039743E0969587954A95EF
:10036000E1F768EF7FEF7FD53A8329839F01280F5C
:10037000391F3C832B8369817A818B819C810F900B
:100380000F900F900F90DF91CF9108952E5E3F4F09
:10039000D8CF22513109D8CF3896D9CFCF93DF9318
:1003A00000D000D0CDB7DEB79C0149835A836B8360
:1003B0007C8349815A818B819C8122303105C9F02F
:1003C00020F4232BA1F4019703C023303105B1F0B1
:1003D0005A8349839C838B8369817A818B819C8139
:1003E0000F900F900F900F90DF91CF91A2CF0196B9
:1003F000EFCF49815A814F5F5F4FEACF415051099A
:10040000E7CFCF93DF9380E076DED0E0C0E04DE031
:1004100062E070E0CE0132DE4DE06BE070E0CE01D4
:100420002DDE2196C331D10591F7C2E0D0E04EE038
:10043000BE0190E080E022DE4EE0BE0183E190E06C
:100440001DDE2196CB30D10591F74FE062E070E0E0
:1004500090E080E013DE4FE062E070E083E190E046
:100460000DDE4FE06BE070E090E080E007DE4FE0F3
:100470006BE070E083E190E0DF91CF91FFCD8F9250
:100480009F92AF92BF92CF92DF92EF92FF920F9323
:100490001F93CF93DF93EC014B01152F6C0184E088
:1004A000C80ED11C88EEE82E83E0F82E9AE0A92E23
:1004B000B12C842F912FB701E7D48C0141E0460F76
:1004C000B401CE01DBDD402FC701B501DDD47B01D6
:1004D0002196CC16DD0669F7DF91CF911F910F9120
:1004E000FF90EF90DF90CF90BF90AF909F908F9054
:1004F0000895CF92DF92EF92FF92CF93DF9300D0D7
:1005000000D0CDB7DEB76B017C01DA01AC0122303F
:100510003105F9F040F44A1B5B0B232B39F4AD0194
:100520004E0D5F1D03C023303105B1F07A8369831E
:100530005C834B8369817A818B819C810F900F90C2
:100540000F900F90DF91CF91FF90EF90DF90CF90C1
:1005500008956A1B7B0BEACFBD016C0D7D1DE6CFB4
:100560004F925F926F927F928F929F92AF92BF92C3
:10057000CF92DF92EF92FF920F931F93CF93DF936F
:10058000622EB32E742EA52E9701A8016B01EC01EB
:10059000862C9B2C472C5A2C662D7B2D872D9A2D33
:1005A000A8DFFB01AC01C814D904C1F4C616D706F4
:1005B000A9F4272D3A2D821793070CF49C01C2173A
:1005C000D30754F0272D3A2D241735070CF49C013E
:1005D00081E02C173D07DCF480E019C0C415D50577
:1005E00041F5C417D50729F5862D9B2DE815F9058A
:1005F0000CF4CB01C816D9067CF3262D3B2D2E1703
:100600003F070CF49B0181E02C153D052CF3817014
:10061000DF91CF911F910F91FF90EF90DF90CF90DE
:10062000BF90AF909F908F907F906F905F904F9012
:10063000089580E0EDCF8F929F92AF92BF92CF92BC
:10064000DF92EF92FF920F931F93CF93DF9300D02F
:1006500000D000D0CDB7DEB7D62EC72E982E892E6B
:100660008AE5A82E81E0B82E1E821D82809182012B
:1006700090918301AD81BE818A179B07A1F480E030
:1006800026960FB6F894DEBF0FBECDBFDF91CF9197
:100690001F910F91FF90EF90DF90CF90BF90AF90A0
:1006A0009F908F900895F50181919191A191B191C1
:1006B0005F0189839A83AB83BC832091560130917B
:1006C000570140915801509159017C018D016D2DC8
:1006D0007C2D892D982D44DF8111D2CF2D813E8133
:1006E0002F5F3F4F3E832D83C1CF4F925F926F921A
:1006F0007F928F929F92AF92BF92CF92DF92EF92B2
:10070000FF920F931F93CF93DF9300D000D000D0C0
:10071000CDB7DEB7709056016090570150905801E8
:10072000409059017D826E8242018AE5A82E81E0C7
:10073000B82ED12CC12C80918201909183018C150F
:100740009D05C1F480E026960FB6F894DEBF0FBE7B
:10075000CDBFDF91CF911F910F91FF90EF90DF9070
:10076000CF90BF90AF909F908F907F906F905F9051
:100770004F900895F50181919191A191B1915F01FF
:1007800089839A83AB83BC83C114D10469F07C0153
:100790008D012D813E81492D582D672D762D852D7A
:1007A000942DDEDE8111CFCF29813A814B815C818E
:1007B0006D817E81892D982D9CDE6D837E83982EA0
:1007C000892EFFEFCF1ADF0AB6CF4F925F926F925A
:1007D0007F92AF92BF92CF92DF92EF92FF920F93F0
:1007E0001F93CF93DF9300D00F92CDB7DEB73C01BC
:1007F000C9016B0153016217730761F09B01281B4C
:10080000390B3B832A8303E010E037FF0DC002E081
:1008100010E00AC09301241B350B3B832A83890116
:100820000027110F001F11278A819B8197FF05C0A8
:100830009195819591099B838A83C80196958795A7
:1008400025E0280F2983F12CE12C8A819B81E81671
:10085000F90691F40F900F900F90DF91CF911F91B7
:100860000F91FF90EF90DF90CF90BF90AF907F906F
:100870006F905F904F900895B501A601C8018EDD7D
:100880002B016B015C014981BC01C201F7DB3FEF29
:10089000E31AF30ADACFBF92CF92DF92EF92FF9280
:1008A0000F931F93CF93DF93D62EE72EB82EC92E2A
:1008B000C22F1FDEF62E072F182FD92F262F372FE6
:1008C000482F592F6D2D7E2D8B2D9C2D7EDF41E0E5
:1008D0004C0F6B2D7C2D8D2D9E2DD0DB6F2D702F11
:1008E000812F9D2FDF91CF911F910F91FF90EF905E
:1008F000DF90CF90BF901DCD562F372FE42FEE0FF6
:10090000EE0F2350E20F43E0EA3020F4F0E0E65B24
:10091000FE4F4081495FBC01852F932FAFCB8F9253
:100920009F92AF92BF92CF92DF92EF92FF920F937E
:100930001F93CF93DF936B01D82FC92F4901A801D3
:100940009701D7DD5B018C019B01AC01B6018D2FB6
:100950009C2F3BDF9701A401B6018D2F9C2FCCDF8C
:10096000B501C801DF91CF911F910F91FF90EF90DA
:10097000DF90CF90BF90AF909F908F90DACCCF92C6
:10098000DF92EF92FF920F931F93CF93DF9300D0EC
:1009900000D000D0CDB7DEB76091560170915701FD
:1009A0008091580190915901C0908201D0908301AB
:1009B00020915A0130915B0140915C0150915D01A1
:1009C0006ADF21E030E02C153D057CF026960FB65D
:1009D000F894DEBF0FBECDBFDF91CF911F910F9175
:1009E000FF90EF90DF90CF90089589010F5F1F4F28
:1009F0001E830D83F801EE0FFF1FEE0FFF1FEA5A53
:100A0000FE4FE080F18002811381E982FA820B833C
:100A10001C83220F331F220F331FF901EA5AFE4FA6
:100A200020813181428153817ADF2D813E81CBCF7C
:100A3000CF92DF92EF92FF920F931F93CF93DF93AA
:100A400000D000D000D0CDB7DEB782E690E09E8324
:100A50008D8310E000E0809161008017110609F09D
:100A60007CF426960FB6F894DEBF0FBECDBFDF91A3
:100A7000CF911F910F91FF90EF90DF90CF9008954D
:100A8000AD81BE818D919D910D90BC91A02D8983EA
:100A90009A83AB83BC83ED81FE81C080D180E280EC
:100AA000F3804BE00115110551F0FC82EB82698166
:100AB0007A818B819C81BFDD882361F04CE0B70196
:100AC000C601DCDA0F5F1F4F8D819E8104969E83E5
:100AD0008D83C1CFE0916100E150E0936100F0E0CF
:100AE000EE0FFF1FEE0FFF1FEE59FF4F8081918128
:100AF000A281B381ED81FE8180839183A283B38340
:100B0000E1CF409156015091570160915801709189
:100B1000590180915A0190915B0140DC609356012C
:100B2000709357018093580190935901E09182018D
:100B3000F091830180915C0190915D010196909309
:100B40005D0180935C01EE0FFF1FEE0FFF1FEE5A59
:100B5000FE4F86819781019797838683892B09F4BD
:100B6000DBCB0895E6E5F1E04091820150918301ED
:100B700030E020E090E080E034962417350709F457
:100B8000089562817381860F971F2F5F3F4FF4CFC7
:100B9000209162003091630080915601909157013D
:100BA0002817390761F481E0409164005091650095
:100BB00020915801309159014217530709F080E004
:100BC000817008950F931F93E2E6F0E041E050E05A
:100BD000209161002417150674F4609362007093ED
:100BE000630080936400909365002F5F2093610001
:100BF0001F910F9108950081118122813381048317
:100C000015832683378334964F5F5F4FE1CFEF9292
:100C1000FF920F931F93CF93DF9300D000D000D0AB
:100C2000CDB7DEB740916000475C498340936000D8
:100C300099DF9C014981842F90E060E970E0621B9C
:100C4000730B22D17C0101E010E083E090E09E83F1
:100C50008D831A8309838D819E819C838B83698117
:100C60007A818B819C81E114F10469F426960FB698
:100C7000F894DEBF0FBECDBFDF91CF911F910F91D2
:100C8000FF90EF909FCFD7DC811103C091E0E91A6C
:100C9000F1088D819E8101969E838D830B97C9F605
:100CA0000F5F1F4F0331110581F626960FB6F8949A
:100CB000DEBF0FBECDBFDF91CF911F910F91FF908F
:100CC000EF900895CF92DF92EF92FF9220918201F0
:100CD00030918301A901F901EE0FFF1FEE0FFF1FF5
:100CE000EA5AFE4F141615069CF080935A01909311
:100CF0005B0110925D0110925C012F5F3F4F3093BA
:100D0000830120938201FF90EF90DF90CF900895B0
:100D100041505109C080D180E280F380C482D582E5
:100D2000E682F7823497DECF20915A0130915B0141
:100D300084FD0CC085FD0DC081FD0EC083FF0FC07A
:100D400081E090E08217930751F0BCCF83E090E000
:100D5000F9CF82E090E0F6CF90E080E0F3CF089505
:100D600085E087BB18BA0895E6E5F1E084E090E0FD
:100D7000918380839383828381E090E095A784A709
:100D800082E090E09583848383E090E0978386837C
:100D9000109255011092540134DB4091540150914E
:100DA000550170E060E080E190E069DB4091540122
:100DB0005091550161E070E080E190E060CBD4CFCC
:100DC000B3DF9FDE1EDB409154015091550170E06E
:100DD00060E080E190E053DB409154015091550177
:100DE00061E070E080E190E04ADBC9DD21DE4EED9C
:100DF00050E061E070E090E080E00DDA42EB50E01E
:100E000062E070E081E090E006DA4AE051E06CE0F8
:100E100070E082E090E0FFD968DC8111A5CFB8DEF8
:100E20008823C9F080915401909155010A969093BE
:100E3000550180935401E0918201F0918301EE0FFE
:100E4000FF1FEE0FFF1FEE5AFE4F8681978101961E
:100E500097838683DCCE089583DF86DF86B38A732B
:100E600090E0AEDFFBCF0024552704C0080E591FC9
:100E7000880F991F009729F076956795B8F371054B
:100E8000B9F7802D952F089597FB072E16F400943F
:100E900006D077FD08D00BD007FC05D03EF4909526
:100EA00081959F4F0895709561957F4F0895AA1B76
:100EB000BB1B51E107C0AA1FBB1FA617B70710F045
:100EC000A61BB70B881F991F5A95A9F78095909577
:0A0ED000BC01CD010895F894FFCF96
:100EDA0017010A00070000000000000000000000DF
:100EEA0000000000000000000000000000000000F8
:100EFA0000000000000000000000000000000000E8
:100F0A0000000000000000000000000000000000D7
:100F1A0000000000000000000000000000000000C7
:100F2A000000000000000A040000040E0000080E81
:100F3A000000020C00000E020000020E00000A0E61
:100F4A000000040400000A0E0000020E0000000067
:100F5A00000000040A0A00040C04000C0204000C3D
:100F6A0002060008080A000E080E000E080E000EFF
:100F7A000204000E0A0E000E0A0E00000000060609
:100F8A000A06060A0606040B0F00020D0F000602E7
:100F9A000406000D0B000003050606050300000CFD
:100FAA000A06060A0C0002050200060B0D06000FCF
:100FBA000F00060606060F0F0F0F010303020000BB
:040FCA00010303021A
:00000001FF
